{
  "contractName": "PredictorsApp",
  "abi": [
    {
      "inputs": [],
      "stateMutability": "nonpayable",
      "type": "constructor"
    },
    {
      "anonymous": false,
      "inputs": [
        {
          "indexed": false,
          "internalType": "address",
          "name": "walletAddress",
          "type": "address"
        },
        {
          "indexed": false,
          "internalType": "uint256",
          "name": "amount",
          "type": "uint256"
        }
      ],
      "name": "BalanceWithdrawn",
      "type": "event"
    },
    {
      "anonymous": false,
      "inputs": [
        {
          "indexed": false,
          "internalType": "uint256",
          "name": "id",
          "type": "uint256"
        },
        {
          "indexed": false,
          "internalType": "string",
          "name": "postContent",
          "type": "string"
        },
        {
          "indexed": false,
          "internalType": "uint256",
          "name": "postBet",
          "type": "uint256"
        },
        {
          "indexed": false,
          "internalType": "uint256",
          "name": "postEndDate",
          "type": "uint256"
        },
        {
          "indexed": false,
          "internalType": "address",
          "name": "postAuthor",
          "type": "address"
        },
        {
          "indexed": false,
          "internalType": "enum PredictorsApp.SIDE",
          "name": "_side",
          "type": "uint8"
        }
      ],
      "name": "NewPost",
      "type": "event"
    },
    {
      "anonymous": false,
      "inputs": [
        {
          "indexed": false,
          "internalType": "uint256",
          "name": "id",
          "type": "uint256"
        },
        {
          "indexed": false,
          "internalType": "string",
          "name": "fullName",
          "type": "string"
        },
        {
          "indexed": false,
          "internalType": "address",
          "name": "walletAddress",
          "type": "address"
        }
      ],
      "name": "NewUser",
      "type": "event"
    },
    {
      "anonymous": false,
      "inputs": [
        {
          "indexed": false,
          "internalType": "uint256",
          "name": "postId",
          "type": "uint256"
        },
        {
          "indexed": false,
          "internalType": "address",
          "name": "winner",
          "type": "address"
        },
        {
          "indexed": false,
          "internalType": "uint256",
          "name": "totalBet",
          "type": "uint256"
        },
        {
          "indexed": false,
          "internalType": "uint256",
          "name": "authorReward",
          "type": "uint256"
        }
      ],
      "name": "PostFinish",
      "type": "event"
    },
    {
      "anonymous": false,
      "inputs": [
        {
          "indexed": false,
          "internalType": "uint256",
          "name": "postId",
          "type": "uint256"
        },
        {
          "indexed": false,
          "internalType": "address",
          "name": "participant",
          "type": "address"
        },
        {
          "indexed": false,
          "internalType": "uint256",
          "name": "amount",
          "type": "uint256"
        },
        {
          "indexed": false,
          "internalType": "enum PredictorsApp.SIDE",
          "name": "_side",
          "type": "uint8"
        }
      ],
      "name": "PostParticipation",
      "type": "event"
    },
    {
      "inputs": [],
      "name": "admin",
      "outputs": [
        {
          "internalType": "address",
          "name": "",
          "type": "address"
        }
      ],
      "stateMutability": "view",
      "type": "function",
      "constant": true
    },
    {
      "inputs": [
        {
          "internalType": "address",
          "name": "",
          "type": "address"
        },
        {
          "internalType": "enum PredictorsApp.SIDE",
          "name": "",
          "type": "uint8"
        }
      ],
      "name": "betAmountByUser",
      "outputs": [
        {
          "internalType": "uint256",
          "name": "",
          "type": "uint256"
        }
      ],
      "stateMutability": "view",
      "type": "function",
      "constant": true
    },
    {
      "inputs": [],
      "name": "postCount",
      "outputs": [
        {
          "internalType": "uint256",
          "name": "",
          "type": "uint256"
        }
      ],
      "stateMutability": "view",
      "type": "function",
      "constant": true
    },
    {
      "inputs": [
        {
          "internalType": "uint256",
          "name": "",
          "type": "uint256"
        }
      ],
      "name": "posts",
      "outputs": [
        {
          "internalType": "uint256",
          "name": "id",
          "type": "uint256"
        },
        {
          "internalType": "string",
          "name": "postContent",
          "type": "string"
        },
        {
          "internalType": "uint256",
          "name": "postBet",
          "type": "uint256"
        },
        {
          "internalType": "uint256",
          "name": "postEndDate",
          "type": "uint256"
        },
        {
          "internalType": "uint256",
          "name": "postDate",
          "type": "uint256"
        },
        {
          "internalType": "uint256",
          "name": "postBetPool",
          "type": "uint256"
        },
        {
          "internalType": "bool",
          "name": "postFinished",
          "type": "bool"
        }
      ],
      "stateMutability": "view",
      "type": "function",
      "constant": true
    },
    {
      "inputs": [
        {
          "internalType": "address",
          "name": "",
          "type": "address"
        },
        {
          "internalType": "uint256",
          "name": "",
          "type": "uint256"
        }
      ],
      "name": "sideByUser",
      "outputs": [
        {
          "internalType": "enum PredictorsApp.SIDE",
          "name": "",
          "type": "uint8"
        }
      ],
      "stateMutability": "view",
      "type": "function",
      "constant": true
    },
    {
      "inputs": [],
      "name": "state",
      "outputs": [
        {
          "internalType": "enum PredictorsApp.SIDE",
          "name": "winner",
          "type": "uint8"
        },
        {
          "internalType": "enum PredictorsApp.SIDE",
          "name": "loser",
          "type": "uint8"
        }
      ],
      "stateMutability": "view",
      "type": "function",
      "constant": true
    },
    {
      "inputs": [
        {
          "internalType": "enum PredictorsApp.SIDE",
          "name": "",
          "type": "uint8"
        }
      ],
      "name": "topBetsForSide",
      "outputs": [
        {
          "internalType": "uint256",
          "name": "",
          "type": "uint256"
        }
      ],
      "stateMutability": "view",
      "type": "function",
      "constant": true
    },
    {
      "inputs": [],
      "name": "userCount",
      "outputs": [
        {
          "internalType": "uint256",
          "name": "",
          "type": "uint256"
        }
      ],
      "stateMutability": "view",
      "type": "function",
      "constant": true
    },
    {
      "inputs": [
        {
          "internalType": "address",
          "name": "",
          "type": "address"
        }
      ],
      "name": "users",
      "outputs": [
        {
          "internalType": "uint256",
          "name": "id",
          "type": "uint256"
        },
        {
          "internalType": "string",
          "name": "fullName",
          "type": "string"
        },
        {
          "internalType": "uint256",
          "name": "balance",
          "type": "uint256"
        },
        {
          "internalType": "address",
          "name": "walletAddress",
          "type": "address"
        },
        {
          "internalType": "uint256",
          "name": "registerDate",
          "type": "uint256"
        },
        {
          "internalType": "bool",
          "name": "isVerified",
          "type": "bool"
        },
        {
          "internalType": "uint256",
          "name": "predictionSuccesful",
          "type": "uint256"
        }
      ],
      "stateMutability": "view",
      "type": "function",
      "constant": true
    },
    {
      "inputs": [
        {
          "internalType": "address",
          "name": "_newOwner",
          "type": "address"
        }
      ],
      "name": "setOwner",
      "outputs": [],
      "stateMutability": "nonpayable",
      "type": "function"
    },
    {
      "inputs": [
        {
          "internalType": "string",
          "name": "_fullName",
          "type": "string"
        }
      ],
      "name": "registerUser",
      "outputs": [],
      "stateMutability": "nonpayable",
      "type": "function"
    },
    {
      "inputs": [
        {
          "internalType": "string",
          "name": "_postContent",
          "type": "string"
        },
        {
          "internalType": "uint256",
          "name": "_postBet",
          "type": "uint256"
        },
        {
          "internalType": "uint256",
          "name": "_postEndDate",
          "type": "uint256"
        },
        {
          "internalType": "enum PredictorsApp.SIDE",
          "name": "_side",
          "type": "uint8"
        }
      ],
      "name": "createPost",
      "outputs": [],
      "stateMutability": "nonpayable",
      "type": "function"
    },
    {
      "inputs": [
        {
          "internalType": "uint256",
          "name": "_postId",
          "type": "uint256"
        },
        {
          "internalType": "uint256",
          "name": "_amount",
          "type": "uint256"
        },
        {
          "internalType": "enum PredictorsApp.SIDE",
          "name": "_side",
          "type": "uint8"
        }
      ],
      "name": "participateInPost",
      "outputs": [],
      "stateMutability": "nonpayable",
      "type": "function"
    },
    {
      "inputs": [
        {
          "internalType": "uint256",
          "name": "_postId",
          "type": "uint256"
        },
        {
          "internalType": "enum PredictorsApp.SIDE",
          "name": "_winner",
          "type": "uint8"
        },
        {
          "internalType": "enum PredictorsApp.SIDE",
          "name": "_loser",
          "type": "uint8"
        }
      ],
      "name": "postResults",
      "outputs": [],
      "stateMutability": "payable",
      "type": "function",
      "payable": true
    },
    {
      "inputs": [
        {
          "internalType": "address",
          "name": "userAddress",
          "type": "address"
        }
      ],
      "name": "getUserFullName",
      "outputs": [
        {
          "internalType": "string",
          "name": "",
          "type": "string"
        }
      ],
      "stateMutability": "view",
      "type": "function",
      "constant": true
    },
    {
      "inputs": [
        {
          "internalType": "address",
          "name": "_walletAddress",
          "type": "address"
        }
      ],
      "name": "getUserDetails",
      "outputs": [
        {
          "internalType": "uint256",
          "name": "",
          "type": "uint256"
        },
        {
          "internalType": "string",
          "name": "",
          "type": "string"
        },
        {
          "internalType": "uint256",
          "name": "",
          "type": "uint256"
        },
        {
          "internalType": "address",
          "name": "",
          "type": "address"
        },
        {
          "internalType": "uint256",
          "name": "",
          "type": "uint256"
        },
        {
          "internalType": "bool",
          "name": "",
          "type": "bool"
        },
        {
          "internalType": "uint256[]",
          "name": "",
          "type": "uint256[]"
        },
        {
          "internalType": "uint256",
          "name": "",
          "type": "uint256"
        },
        {
          "internalType": "uint256[]",
          "name": "",
          "type": "uint256[]"
        }
      ],
      "stateMutability": "view",
      "type": "function",
      "constant": true
    },
    {
      "inputs": [
        {
          "internalType": "uint256",
          "name": "_id",
          "type": "uint256"
        }
      ],
      "name": "getPostDetails",
      "outputs": [
        {
          "internalType": "uint256",
          "name": "",
          "type": "uint256"
        },
        {
          "internalType": "string",
          "name": "",
          "type": "string"
        },
        {
          "internalType": "uint256",
          "name": "",
          "type": "uint256"
        },
        {
          "internalType": "uint256",
          "name": "",
          "type": "uint256"
        },
        {
          "internalType": "uint256",
          "name": "",
          "type": "uint256"
        },
        {
          "internalType": "address[]",
          "name": "",
          "type": "address[]"
        },
        {
          "internalType": "uint256",
          "name": "",
          "type": "uint256"
        },
        {
          "internalType": "bool",
          "name": "",
          "type": "bool"
        }
      ],
      "stateMutability": "view",
      "type": "function",
      "constant": true
    },
    {
      "inputs": [
        {
          "internalType": "bool",
          "name": "_status",
          "type": "bool"
        }
      ],
      "name": "getPostByStatus",
      "outputs": [
        {
          "components": [
            {
              "internalType": "uint256",
              "name": "id",
              "type": "uint256"
            },
            {
              "internalType": "string",
              "name": "postContent",
              "type": "string"
            },
            {
              "internalType": "uint256",
              "name": "postBet",
              "type": "uint256"
            },
            {
              "internalType": "uint256",
              "name": "postEndDate",
              "type": "uint256"
            },
            {
              "internalType": "uint256",
              "name": "postDate",
              "type": "uint256"
            },
            {
              "internalType": "address[]",
              "name": "postParticipants",
              "type": "address[]"
            },
            {
              "internalType": "uint256",
              "name": "postBetPool",
              "type": "uint256"
            },
            {
              "internalType": "bool",
              "name": "postFinished",
              "type": "bool"
            }
          ],
          "internalType": "struct PredictorsApp.Post[]",
          "name": "",
          "type": "tuple[]"
        }
      ],
      "stateMutability": "view",
      "type": "function",
      "constant": true
    },
    {
      "inputs": [],
      "name": "getOwner",
      "outputs": [
        {
          "internalType": "address",
          "name": "",
          "type": "address"
        }
      ],
      "stateMutability": "view",
      "type": "function",
      "constant": true
    },
    {
      "inputs": [
        {
          "internalType": "address",
          "name": "walletAddress",
          "type": "address"
        }
      ],
      "name": "getUser",
      "outputs": [
        {
          "components": [
            {
              "internalType": "uint256",
              "name": "id",
              "type": "uint256"
            },
            {
              "internalType": "string",
              "name": "fullName",
              "type": "string"
            },
            {
              "internalType": "uint256",
              "name": "balance",
              "type": "uint256"
            },
            {
              "internalType": "address",
              "name": "walletAddress",
              "type": "address"
            },
            {
              "internalType": "uint256",
              "name": "registerDate",
              "type": "uint256"
            },
            {
              "internalType": "bool",
              "name": "isVerified",
              "type": "bool"
            },
            {
              "internalType": "uint256[]",
              "name": "allPredictions",
              "type": "uint256[]"
            },
            {
              "internalType": "uint256",
              "name": "predictionSuccesful",
              "type": "uint256"
            },
            {
              "internalType": "uint256[]",
              "name": "partipicatedPost",
              "type": "uint256[]"
            }
          ],
          "internalType": "struct PredictorsApp.User",
          "name": "",
          "type": "tuple"
        }
      ],
      "stateMutability": "view",
      "type": "function",
      "constant": true
    },
    {
      "inputs": [
        {
          "internalType": "uint256",
          "name": "_id",
          "type": "uint256"
        }
      ],
      "name": "getPost",
      "outputs": [
        {
          "components": [
            {
              "internalType": "uint256",
              "name": "id",
              "type": "uint256"
            },
            {
              "internalType": "string",
              "name": "postContent",
              "type": "string"
            },
            {
              "internalType": "uint256",
              "name": "postBet",
              "type": "uint256"
            },
            {
              "internalType": "uint256",
              "name": "postEndDate",
              "type": "uint256"
            },
            {
              "internalType": "uint256",
              "name": "postDate",
              "type": "uint256"
            },
            {
              "internalType": "address[]",
              "name": "postParticipants",
              "type": "address[]"
            },
            {
              "internalType": "uint256",
              "name": "postBetPool",
              "type": "uint256"
            },
            {
              "internalType": "bool",
              "name": "postFinished",
              "type": "bool"
            }
          ],
          "internalType": "struct PredictorsApp.Post",
          "name": "",
          "type": "tuple"
        }
      ],
      "stateMutability": "view",
      "type": "function",
      "constant": true
    },
    {
      "inputs": [],
      "name": "getUserCount",
      "outputs": [
        {
          "internalType": "uint256",
          "name": "",
          "type": "uint256"
        }
      ],
      "stateMutability": "view",
      "type": "function",
      "constant": true
    },
    {
      "inputs": [],
      "name": "getPostCount",
      "outputs": [
        {
          "internalType": "uint256",
          "name": "",
          "type": "uint256"
        }
      ],
      "stateMutability": "view",
      "type": "function",
      "constant": true
    }
  ],
  "bytecode": "0x608060405234801561001057600080fd5b50336000806101000a81548173ffffffffffffffffffffffffffffffffffffffff021916908373ffffffffffffffffffffffffffffffffffffffff16021790555060006001819055506000600281905550614185806100706000396000f3fe6080604052600436106101405760003560e01c8063704f1b94116100b6578063b5cb15f71161006f578063b5cb15f7146104be578063bcc95407146104e9578063c19d93fb14610514578063cc3d967b14610540578063d7441ee914610585578063f851a440146105c257610140565b8063704f1b9414610369578063873ee90014610392578063893d20e8146103cf5780639fc226f4146103fa578063a87430ba1461043e578063adb2e2d21461048157610140565b80631b9cde57116101085780631b9cde5714610230578063302513d01461024c5780633135899a146102895780633ca7c55e146102c657806340731c24146102ef5780636f77926b1461032c57610140565b806303f505c31461014557806307973ccf1461016e5780630b1e7f831461019957806313af4035146101dc57806317906c2e14610205575b600080fd5b34801561015157600080fd5b5061016c60048036038101906101679190612adc565b6105ed565b005b34801561017a57600080fd5b50610183610a14565b6040516101909190612b6e565b60405180910390f35b3480156101a557600080fd5b506101c060048036038101906101bb9190612b89565b610a1a565b6040516101d39796959493929190612c59565b60405180910390f35b3480156101e857600080fd5b5061020360048036038101906101fe9190612d2d565b610af1565b005b34801561021157600080fd5b5061021a610bc2565b6040516102279190612b6e565b60405180910390f35b61024a60048036038101906102459190612d5a565b610bc8565b005b34801561025857600080fd5b50610273600480360381019061026e9190612dad565b6110c8565b6040516102809190612b6e565b60405180910390f35b34801561029557600080fd5b506102b060048036038101906102ab9190612dda565b6110e0565b6040516102bd9190612b6e565b60405180910390f35b3480156102d257600080fd5b506102ed60048036038101906102e89190612e1a565b611105565b005b3480156102fb57600080fd5b5061031660048036038101906103119190612b89565b6114fa565b604051610323919061304a565b60405180910390f35b34801561033857600080fd5b50610353600480360381019061034e9190612d2d565b6116ee565b60405161036091906131ee565b60405180910390f35b34801561037557600080fd5b50610390600480360381019061038b9190613210565b61196b565b005b34801561039e57600080fd5b506103b960048036038101906103b49190613259565b611c68565b6040516103c69190613310565b60405180910390f35b3480156103db57600080fd5b506103e4611c97565b6040516103f1919061333a565b60405180910390f35b34801561040657600080fd5b50610421600480360381019061041c9190612b89565b611cc0565b6040516104359897969594939291906133c4565b60405180910390f35b34801561044a57600080fd5b5061046560048036038101906104609190612d2d565b611efb565b6040516104789796959493929190613450565b60405180910390f35b34801561048d57600080fd5b506104a860048036038101906104a391906134f2565b611ff2565b6040516104b59190613698565b60405180910390f35b3480156104ca57600080fd5b506104d36122c8565b6040516104e09190612b6e565b60405180910390f35b3480156104f557600080fd5b506104fe6122d2565b60405161050b9190612b6e565b60405180910390f35b34801561052057600080fd5b506105296122dc565b6040516105379291906136ba565b60405180910390f35b34801561054c57600080fd5b5061056760048036038101906105629190612d2d565b612308565b60405161057c99989796959493929190613752565b60405180910390f35b34801561059157600080fd5b506105ac60048036038101906105a79190612d2d565b6125d8565b6040516105b991906137f4565b60405180910390f35b3480156105ce57600080fd5b506105d7612642565b6040516105e4919061333a565b60405180910390f35b6000845111610631576040517f08c379a000000000000000000000000000000000000000000000000000000000815260040161062890613862565b60405180910390fd5b60008311610674576040517f08c379a000000000000000000000000000000000000000000000000000000000815260040161066b906138f4565b60405180910390fd5b6002600081548092919061068790613943565b91905055506000600167ffffffffffffffff8111156106a9576106a8612956565b5b6040519080825280602002602001820160405280156106d75781602001602082028036833780820191505090505b50905033816000815181106106ef576106ee61398b565b5b602002602001019073ffffffffffffffffffffffffffffffffffffffff16908173ffffffffffffffffffffffffffffffffffffffff168152505081600960003373ffffffffffffffffffffffffffffffffffffffff1673ffffffffffffffffffffffffffffffffffffffff1681526020019081526020016000206000600254815260200190815260200160002060006101000a81548160ff0219169083600181111561079e5761079d613299565b5b021790555060405180610100016040528060025481526020018681526020018581526020018481526020014281526020018281526020018581526020016000151581525060066000600254815260200190815260200160002060008201518160000155602082015181600101908051906020019061081d929190612702565b5060408201518160020155606082015181600301556080820151816004015560a0820151816005019080519060200190610858929190612788565b5060c0820151816006015560e08201518160070160006101000a81548160ff02191690831515021790555090505083600860003373ffffffffffffffffffffffffffffffffffffffff1673ffffffffffffffffffffffffffffffffffffffff16815260200190815260200160002060008460018111156108db576108da613299565b5b60018111156108ed576108ec613299565b5b8152602001908152602001600020600082825461090a91906139ba565b92505081905550836007600084600181111561092957610928613299565b5b600181111561093b5761093a613299565b5b8152602001908152602001600020600082825461095891906139ba565b92505081905550600560003373ffffffffffffffffffffffffffffffffffffffff1673ffffffffffffffffffffffffffffffffffffffff16815260200190815260200160002060060160025490806001815401808255809150506001900390600052602060002001600090919091909150557f7899c2ae62d80d88c47b7e17dbdb5dec5b80aab5ed5bd8700581a6819e48dba26002548686863387604051610a0596959493929190613a10565b60405180910390a15050505050565b60015481565b6006602052806000526040600020600091509050806000015490806001018054610a4390613aa7565b80601f0160208091040260200160405190810160405280929190818152602001828054610a6f90613aa7565b8015610abc5780601f10610a9157610100808354040283529160200191610abc565b820191906000526020600020905b815481529060010190602001808311610a9f57829003601f168201915b5050505050908060020154908060030154908060040154908060060154908060070160009054906101000a900460ff16905087565b60008054906101000a900473ffffffffffffffffffffffffffffffffffffffff1673ffffffffffffffffffffffffffffffffffffffff163373ffffffffffffffffffffffffffffffffffffffff1614610b7f576040517f08c379a0000000000000000000000000000000000000000000000000000000008152600401610b7690613b4a565b60405180910390fd5b806000806101000a81548173ffffffffffffffffffffffffffffffffffffffff021916908373ffffffffffffffffffffffffffffffffffffffff16021790555050565b60025481565b600015156006600085815260200190815260200160002060070160009054906101000a900460ff16151514610c32576040517f08c379a0000000000000000000000000000000000000000000000000000000008152600401610c2990613bb6565b60405180910390fd5b81600460000160006101000a81548160ff02191690836001811115610c5a57610c59613299565b5b021790555080600460000160016101000a81548160ff02191690836001811115610c8757610c86613299565b5b021790555060016006600085815260200190815260200160002060070160006101000a81548160ff0219169083151502179055506000600660008581526020019081526020016000206005018054905067ffffffffffffffff811115610cf057610cef612956565b5b604051908082528060200260200182016040528015610d1e5781602001602082028036833780820191505090505b509050600060066000868152602001908152602001600020600501805480602002602001604051908101604052809291908181526020018280548015610db957602002820191906000526020600020905b8160009054906101000a900473ffffffffffffffffffffffffffffffffffffffff1673ffffffffffffffffffffffffffffffffffffffff1681526020019060010190808311610d6f575b5050505050905060006006600087815260200190815260200160002060060154905060005b82518110156110bf576000838281518110610dfc57610dfb61398b565b5b60200260200101519050600960008273ffffffffffffffffffffffffffffffffffffffff1673ffffffffffffffffffffffffffffffffffffffff168152602001908152602001600020600089815260200190815260200160002060009054906101000a900460ff16858381518110610e7757610e7661398b565b5b60200260200101906001811115610e9157610e90613299565b5b90816001811115610ea557610ea4613299565b5b81525050600460000160009054906101000a900460ff166001811115610ece57610ecd613299565b5b858381518110610ee157610ee061398b565b5b60200260200101516001811115610efb57610efa613299565b5b036110ab57600560008273ffffffffffffffffffffffffffffffffffffffff1673ffffffffffffffffffffffffffffffffffffffff1681526020019081526020016000206007016000815480929190610f5390613943565b91905055506000600860008373ffffffffffffffffffffffffffffffffffffffff1673ffffffffffffffffffffffffffffffffffffffff1681526020019081526020016000206000878581518110610fae57610fad61398b565b5b60200260200101516001811115610fc857610fc7613299565b5b6001811115610fda57610fd9613299565b5b8152602001908152602001600020549050600060076000600460000160009054906101000a900460ff16600181111561101657611015613299565b5b600181111561102857611027613299565b5b81526020019081526020016000205485836110439190613bd6565b61104d9190613c5f565b905080600560008573ffffffffffffffffffffffffffffffffffffffff1673ffffffffffffffffffffffffffffffffffffffff16815260200190815260200160002060020160008282546110a191906139ba565b9250508190555050505b5080806110b790613943565b915050610dde565b50505050505050565b60076020528060005260406000206000915090505481565b6008602052816000526040600020602052806000526040600020600091509150505481565b60025483111580156111175750600083115b611156576040517f08c379a000000000000000000000000000000000000000000000000000000000815260040161114d90613cdc565b60405180910390fd5b60008211611199576040517f08c379a000000000000000000000000000000000000000000000000000000000815260040161119090613d48565b60405180910390fd5b3373ffffffffffffffffffffffffffffffffffffffff16600660008581526020019081526020016000206005016000815481106111d9576111d861398b565b5b9060005260206000200160009054906101000a900473ffffffffffffffffffffffffffffffffffffffff1673ffffffffffffffffffffffffffffffffffffffff160361125a576040517f08c379a000000000000000000000000000000000000000000000000000000000815260040161125190613dda565b60405180910390fd5b816007600083600181111561127257611271613299565b5b600181111561128457611283613299565b5b815260200190815260200160002060008282546112a191906139ba565b9250508190555081600860003373ffffffffffffffffffffffffffffffffffffffff1673ffffffffffffffffffffffffffffffffffffffff16815260200190815260200160002060008360018111156112fd576112fc613299565b5b600181111561130f5761130e613299565b5b8152602001908152602001600020600082825461132c91906139ba565b925050819055508160066000858152602001908152602001600020600601600082825461135991906139ba565b9250508190555080600960003373ffffffffffffffffffffffffffffffffffffffff1673ffffffffffffffffffffffffffffffffffffffff168152602001908152602001600020600085815260200190815260200160002060006101000a81548160ff021916908360018111156113d3576113d2613299565b5b021790555060066000848152602001908152602001600020600501339080600181540180825580915050600190039060005260206000200160009091909190916101000a81548173ffffffffffffffffffffffffffffffffffffffff021916908373ffffffffffffffffffffffffffffffffffffffff160217905550600560003373ffffffffffffffffffffffffffffffffffffffff1673ffffffffffffffffffffffffffffffffffffffff1681526020019081526020016000206008018390806001815401808255809150506001900390600052602060002001600090919091909150557f65f3464dba2df0038cd6b6f3946cbff99b635032abc752ae6eb1d22a144d5143833384846040516114ed9493929190613dfa565b60405180910390a1505050565b611502612812565b600060066000848152602001908152602001600020600001540361155b576040517f08c379a000000000000000000000000000000000000000000000000000000000815260040161155290613e8b565b60405180910390fd5b60066000838152602001908152602001600020604051806101000160405290816000820154815260200160018201805461159490613aa7565b80601f01602080910402602001604051908101604052809291908181526020018280546115c090613aa7565b801561160d5780601f106115e25761010080835404028352916020019161160d565b820191906000526020600020905b8154815290600101906020018083116115f057829003601f168201915b50505050508152602001600282015481526020016003820154815260200160048201548152602001600582018054806020026020016040519081016040528092919081815260200182805480156116b957602002820191906000526020600020905b8160009054906101000a900473ffffffffffffffffffffffffffffffffffffffff1673ffffffffffffffffffffffffffffffffffffffff168152602001906001019080831161166f575b50505050508152602001600682015481526020016007820160009054906101000a900460ff1615151515815250509050919050565b6116f6612859565b6116ff82612668565b61173e576040517f08c379a000000000000000000000000000000000000000000000000000000000815260040161173590613ef7565b60405180910390fd5b600560008373ffffffffffffffffffffffffffffffffffffffff1673ffffffffffffffffffffffffffffffffffffffff16815260200190815260200160002060405180610120016040529081600082015481526020016001820180546117a390613aa7565b80601f01602080910402602001604051908101604052809291908181526020018280546117cf90613aa7565b801561181c5780601f106117f15761010080835404028352916020019161181c565b820191906000526020600020905b8154815290600101906020018083116117ff57829003601f168201915b50505050508152602001600282015481526020016003820160009054906101000a900473ffffffffffffffffffffffffffffffffffffffff1673ffffffffffffffffffffffffffffffffffffffff1673ffffffffffffffffffffffffffffffffffffffff168152602001600482015481526020016005820160009054906101000a900460ff16151515158152602001600682018054806020026020016040519081016040528092919081815260200182805480156118f957602002820191906000526020600020905b8154815260200190600101908083116118e5575b50505050508152602001600782015481526020016008820180548060200260200160405190810160405280929190818152602001828054801561195b57602002820191906000526020600020905b815481526020019060010190808311611947575b5050505050815250509050919050565b60008151116119af576040517f08c379a00000000000000000000000000000000000000000000000000000000081526004016119a690613f63565b60405180910390fd5b6119b833612668565b156119f8576040517f08c379a00000000000000000000000000000000000000000000000000000000081526004016119ef90613fcf565b60405180910390fd5b60016000815480929190611a0b90613943565b91905055506040518061012001604052806001548152602001828152602001600081526020013373ffffffffffffffffffffffffffffffffffffffff168152602001428152602001600015158152602001600067ffffffffffffffff811115611a7757611a76612956565b5b604051908082528060200260200182016040528015611aa55781602001602082028036833780820191505090505b50815260200160008152602001600067ffffffffffffffff811115611acd57611acc612956565b5b604051908082528060200260200182016040528015611afb5781602001602082028036833780820191505090505b50815250600560003373ffffffffffffffffffffffffffffffffffffffff1673ffffffffffffffffffffffffffffffffffffffff168152602001908152602001600020600082015181600001556020820151816001019080519060200190611b64929190612702565b506040820151816002015560608201518160030160006101000a81548173ffffffffffffffffffffffffffffffffffffffff021916908373ffffffffffffffffffffffffffffffffffffffff1602179055506080820151816004015560a08201518160050160006101000a81548160ff02191690831515021790555060c0820151816006019080519060200190611bfc9291906128bd565b5060e08201518160070155610100820151816008019080519060200190611c249291906128bd565b509050507f252de601d0068c75b821d503ebaaf561c5b04c99d1cf5ebe04bf9c4348285b2f6001548233604051611c5d93929190613fef565b60405180910390a150565b60096020528160005260406000206020528060005260406000206000915091509054906101000a900460ff1681565b60008060009054906101000a900473ffffffffffffffffffffffffffffffffffffffff16905090565b60006060600080600060606000806000600660008b81526020019081526020016000206000015403611d27576040517f08c379a0000000000000000000000000000000000000000000000000000000008152600401611d1e90614079565b60405180910390fd5b6000600660008b81526020019081526020016000206040518061010001604052908160008201548152602001600182018054611d6290613aa7565b80601f0160208091040260200160405190810160405280929190818152602001828054611d8e90613aa7565b8015611ddb5780601f10611db057610100808354040283529160200191611ddb565b820191906000526020600020905b815481529060010190602001808311611dbe57829003601f168201915b5050505050815260200160028201548152602001600382015481526020016004820154815260200160058201805480602002602001604051908101604052809291908181526020018280548015611e8757602002820191906000526020600020905b8160009054906101000a900473ffffffffffffffffffffffffffffffffffffffff1673ffffffffffffffffffffffffffffffffffffffff1681526020019060010190808311611e3d575b50505050508152602001600682015481526020016007820160009054906101000a900460ff1615151515815250509050806000015181602001518260400151836060015184608001518560a001518660c001518760e001519850985098509850985098509850985050919395975091939597565b6005602052806000526040600020600091509050806000015490806001018054611f2490613aa7565b80601f0160208091040260200160405190810160405280929190818152602001828054611f5090613aa7565b8015611f9d5780601f10611f7257610100808354040283529160200191611f9d565b820191906000526020600020905b815481529060010190602001808311611f8057829003601f168201915b5050505050908060020154908060030160009054906101000a900473ffffffffffffffffffffffffffffffffffffffff16908060040154908060050160009054906101000a900460ff16908060070154905087565b6060600080600190505b600154811015612056578315156006600083815260200190815260200160002060070160009054906101000a900460ff1615150361204357818061203f90613943565b9250505b808061204e90613943565b915050611ffc565b5060008167ffffffffffffffff81111561207357612072612956565b5b6040519080825280602002602001820160405280156120ac57816020015b612099612812565b8152602001906001900390816120915790505b509050600091506000600190505b60015481116122bd578415156006600083815260200190815260200160002060070160009054906101000a900460ff161515036122aa5760066000828152602001908152602001600020604051806101000160405290816000820154815260200160018201805461212a90613aa7565b80601f016020809104026020016040519081016040528092919081815260200182805461215690613aa7565b80156121a35780601f10612178576101008083540402835291602001916121a3565b820191906000526020600020905b81548152906001019060200180831161218657829003601f168201915b505050505081526020016002820154815260200160038201548152602001600482015481526020016005820180548060200260200160405190810160405280929190818152602001828054801561224f57602002820191906000526020600020905b8160009054906101000a900473ffffffffffffffffffffffffffffffffffffffff1673ffffffffffffffffffffffffffffffffffffffff1681526020019060010190808311612205575b50505050508152602001600682015481526020016007820160009054906101000a900460ff1615151515815250508284815181106122905761228f61398b565b5b602002602001018190525082806122a690613943565b9350505b80806122b590613943565b9150506120ba565b508092505050919050565b6000600154905090565b6000600254905090565b60048060000160009054906101000a900460ff16908060000160019054906101000a900460ff16905082565b600060606000806000806060600060606123218a612668565b612360576040517f08c379a000000000000000000000000000000000000000000000000000000000815260040161235790613ef7565b60405180910390fd5b6000600560008c73ffffffffffffffffffffffffffffffffffffffff1673ffffffffffffffffffffffffffffffffffffffff16815260200190815260200160002060405180610120016040529081600082015481526020016001820180546123c790613aa7565b80601f01602080910402602001604051908101604052809291908181526020018280546123f390613aa7565b80156124405780601f1061241557610100808354040283529160200191612440565b820191906000526020600020905b81548152906001019060200180831161242357829003601f168201915b50505050508152602001600282015481526020016003820160009054906101000a900473ffffffffffffffffffffffffffffffffffffffff1673ffffffffffffffffffffffffffffffffffffffff1673ffffffffffffffffffffffffffffffffffffffff168152602001600482015481526020016005820160009054906101000a900460ff161515151581526020016006820180548060200260200160405190810160405280929190818152602001828054801561251d57602002820191906000526020600020905b815481526020019060010190808311612509575b50505050508152602001600782015481526020016008820180548060200260200160405190810160405280929190818152602001828054801561257f57602002820191906000526020600020905b81548152602001906001019080831161256b575b5050505050815250509050806000015181602001518260400151836060015184608001518560a001518660c001518760e00151886101000151995099509950995099509950995099509950509193959799909294969850565b6060600560008373ffffffffffffffffffffffffffffffffffffffff1673ffffffffffffffffffffffffffffffffffffffff16815260200190815260200160002060010160405160200161262c9190614138565b6040516020818303038152906040529050919050565b600360009054906101000a900473ffffffffffffffffffffffffffffffffffffffff1681565b60008173ffffffffffffffffffffffffffffffffffffffff16600560008473ffffffffffffffffffffffffffffffffffffffff1673ffffffffffffffffffffffffffffffffffffffff16815260200190815260200160002060030160009054906101000a900473ffffffffffffffffffffffffffffffffffffffff1673ffffffffffffffffffffffffffffffffffffffff16149050919050565b82805461270e90613aa7565b90600052602060002090601f0160209004810192826127305760008555612777565b82601f1061274957805160ff1916838001178555612777565b82800160010185558215612777579182015b8281111561277657825182559160200191906001019061275b565b5b509050612784919061290a565b5090565b828054828255906000526020600020908101928215612801579160200282015b828111156128005782518260006101000a81548173ffffffffffffffffffffffffffffffffffffffff021916908373ffffffffffffffffffffffffffffffffffffffff160217905550916020019190600101906127a8565b5b50905061280e919061290a565b5090565b604051806101000160405280600081526020016060815260200160008152602001600081526020016000815260200160608152602001600081526020016000151581525090565b604051806101200160405280600081526020016060815260200160008152602001600073ffffffffffffffffffffffffffffffffffffffff168152602001600081526020016000151581526020016060815260200160008152602001606081525090565b8280548282559060005260206000209081019282156128f9579160200282015b828111156128f85782518255916020019190600101906128dd565b5b509050612906919061290a565b5090565b5b8082111561292357600081600090555060010161290b565b5090565b6000604051905090565b600080fd5b600080fd5b600080fd5b600080fd5b6000601f19601f8301169050919050565b7f4e487b7100000000000000000000000000000000000000000000000000000000600052604160045260246000fd5b61298e82612945565b810181811067ffffffffffffffff821117156129ad576129ac612956565b5b80604052505050565b60006129c0612927565b90506129cc8282612985565b919050565b600067ffffffffffffffff8211156129ec576129eb612956565b5b6129f582612945565b9050602081019050919050565b82818337600083830152505050565b6000612a24612a1f846129d1565b6129b6565b905082815260208101848484011115612a4057612a3f612940565b5b612a4b848285612a02565b509392505050565b600082601f830112612a6857612a6761293b565b5b8135612a78848260208601612a11565b91505092915050565b6000819050919050565b612a9481612a81565b8114612a9f57600080fd5b50565b600081359050612ab181612a8b565b92915050565b60028110612ac457600080fd5b50565b600081359050612ad681612ab7565b92915050565b60008060008060808587031215612af657612af5612931565b5b600085013567ffffffffffffffff811115612b1457612b13612936565b5b612b2087828801612a53565b9450506020612b3187828801612aa2565b9350506040612b4287828801612aa2565b9250506060612b5387828801612ac7565b91505092959194509250565b612b6881612a81565b82525050565b6000602082019050612b836000830184612b5f565b92915050565b600060208284031215612b9f57612b9e612931565b5b6000612bad84828501612aa2565b91505092915050565b600081519050919050565b600082825260208201905092915050565b60005b83811015612bf0578082015181840152602081019050612bd5565b83811115612bff576000848401525b50505050565b6000612c1082612bb6565b612c1a8185612bc1565b9350612c2a818560208601612bd2565b612c3381612945565b840191505092915050565b60008115159050919050565b612c5381612c3e565b82525050565b600060e082019050612c6e600083018a612b5f565b8181036020830152612c808189612c05565b9050612c8f6040830188612b5f565b612c9c6060830187612b5f565b612ca96080830186612b5f565b612cb660a0830185612b5f565b612cc360c0830184612c4a565b98975050505050505050565b600073ffffffffffffffffffffffffffffffffffffffff82169050919050565b6000612cfa82612ccf565b9050919050565b612d0a81612cef565b8114612d1557600080fd5b50565b600081359050612d2781612d01565b92915050565b600060208284031215612d4357612d42612931565b5b6000612d5184828501612d18565b91505092915050565b600080600060608486031215612d7357612d72612931565b5b6000612d8186828701612aa2565b9350506020612d9286828701612ac7565b9250506040612da386828701612ac7565b9150509250925092565b600060208284031215612dc357612dc2612931565b5b6000612dd184828501612ac7565b91505092915050565b60008060408385031215612df157612df0612931565b5b6000612dff85828601612d18565b9250506020612e1085828601612ac7565b9150509250929050565b600080600060608486031215612e3357612e32612931565b5b6000612e4186828701612aa2565b9350506020612e5286828701612aa2565b9250506040612e6386828701612ac7565b9150509250925092565b612e7681612a81565b82525050565b600082825260208201905092915050565b6000612e9882612bb6565b612ea28185612e7c565b9350612eb2818560208601612bd2565b612ebb81612945565b840191505092915050565b600081519050919050565b600082825260208201905092915050565b6000819050602082019050919050565b612efb81612cef565b82525050565b6000612f0d8383612ef2565b60208301905092915050565b6000602082019050919050565b6000612f3182612ec6565b612f3b8185612ed1565b9350612f4683612ee2565b8060005b83811015612f77578151612f5e8882612f01565b9750612f6983612f19565b925050600181019050612f4a565b5085935050505092915050565b612f8d81612c3e565b82525050565b600061010083016000830151612fac6000860182612e6d565b5060208301518482036020860152612fc48282612e8d565b9150506040830151612fd96040860182612e6d565b506060830151612fec6060860182612e6d565b506080830151612fff6080860182612e6d565b5060a083015184820360a08601526130178282612f26565b91505060c083015161302c60c0860182612e6d565b5060e083015161303f60e0860182612f84565b508091505092915050565b600060208201905081810360008301526130648184612f93565b905092915050565b600081519050919050565b600082825260208201905092915050565b6000819050602082019050919050565b60006130a48383612e6d565b60208301905092915050565b6000602082019050919050565b60006130c88261306c565b6130d28185613077565b93506130dd83613088565b8060005b8381101561310e5781516130f58882613098565b9750613100836130b0565b9250506001810190506130e1565b5085935050505092915050565b6000610120830160008301516131346000860182612e6d565b506020830151848203602086015261314c8282612e8d565b91505060408301516131616040860182612e6d565b5060608301516131746060860182612ef2565b5060808301516131876080860182612e6d565b5060a083015161319a60a0860182612f84565b5060c083015184820360c08601526131b282826130bd565b91505060e08301516131c760e0860182612e6d565b506101008301518482036101008601526131e182826130bd565b9150508091505092915050565b60006020820190508181036000830152613208818461311b565b905092915050565b60006020828403121561322657613225612931565b5b600082013567ffffffffffffffff81111561324457613243612936565b5b61325084828501612a53565b91505092915050565b600080604083850312156132705761326f612931565b5b600061327e85828601612d18565b925050602061328f85828601612aa2565b9150509250929050565b7f4e487b7100000000000000000000000000000000000000000000000000000000600052602160045260246000fd5b600281106132d9576132d8613299565b5b50565b60008190506132ea826132c8565b919050565b60006132fa826132dc565b9050919050565b61330a816132ef565b82525050565b60006020820190506133256000830184613301565b92915050565b61333481612cef565b82525050565b600060208201905061334f600083018461332b565b92915050565b600082825260208201905092915050565b600061337182612ec6565b61337b8185613355565b935061338683612ee2565b8060005b838110156133b757815161339e8882612f01565b97506133a983612f19565b92505060018101905061338a565b5085935050505092915050565b6000610100820190506133da600083018b612b5f565b81810360208301526133ec818a612c05565b90506133fb6040830189612b5f565b6134086060830188612b5f565b6134156080830187612b5f565b81810360a08301526134278186613366565b905061343660c0830185612b5f565b61344360e0830184612c4a565b9998505050505050505050565b600060e082019050613465600083018a612b5f565b81810360208301526134778189612c05565b90506134866040830188612b5f565b613493606083018761332b565b6134a06080830186612b5f565b6134ad60a0830185612c4a565b6134ba60c0830184612b5f565b98975050505050505050565b6134cf81612c3e565b81146134da57600080fd5b50565b6000813590506134ec816134c6565b92915050565b60006020828403121561350857613507612931565b5b6000613516848285016134dd565b91505092915050565b600081519050919050565b600082825260208201905092915050565b6000819050602082019050919050565b6000610100830160008301516135646000860182612e6d565b506020830151848203602086015261357c8282612e8d565b91505060408301516135916040860182612e6d565b5060608301516135a46060860182612e6d565b5060808301516135b76080860182612e6d565b5060a083015184820360a08601526135cf8282612f26565b91505060c08301516135e460c0860182612e6d565b5060e08301516135f760e0860182612f84565b508091505092915050565b600061360e838361354b565b905092915050565b6000602082019050919050565b600061362e8261351f565b613638818561352a565b93508360208202850161364a8561353b565b8060005b8581101561368657848403895281516136678582613602565b945061367283613616565b925060208a0199505060018101905061364e565b50829750879550505050505092915050565b600060208201905081810360008301526136b28184613623565b905092915050565b60006040820190506136cf6000830185613301565b6136dc6020830184613301565b9392505050565b600082825260208201905092915050565b60006136ff8261306c565b61370981856136e3565b935061371483613088565b8060005b8381101561374557815161372c8882613098565b9750613737836130b0565b925050600181019050613718565b5085935050505092915050565b600061012082019050613768600083018c612b5f565b818103602083015261377a818b612c05565b9050613789604083018a612b5f565b613796606083018961332b565b6137a36080830188612b5f565b6137b060a0830187612c4a565b81810360c08301526137c281866136f4565b90506137d160e0830185612b5f565b8181036101008301526137e481846136f4565b90509a9950505050505050505050565b6000602082019050818103600083015261380e8184612c05565b905092915050565b7f506f737420636f6e74656e742069732072657175697265640000000000000000600082015250565b600061384c601883612bc1565b915061385782613816565b602082019050919050565b6000602082019050818103600083015261387b8161383f565b9050919050565b7f42657420616d6f756e74206d7573742062652067726561746572207468616e2060008201527f3000000000000000000000000000000000000000000000000000000000000000602082015250565b60006138de602183612bc1565b91506138e982613882565b604082019050919050565b6000602082019050818103600083015261390d816138d1565b9050919050565b7f4e487b7100000000000000000000000000000000000000000000000000000000600052601160045260246000fd5b600061394e82612a81565b91507fffffffffffffffffffffffffffffffffffffffffffffffffffffffffffffffff82036139805761397f613914565b5b600182019050919050565b7f4e487b7100000000000000000000000000000000000000000000000000000000600052603260045260246000fd5b60006139c582612a81565b91506139d083612a81565b9250827fffffffffffffffffffffffffffffffffffffffffffffffffffffffffffffffff03821115613a0557613a04613914565b5b828201905092915050565b600060c082019050613a256000830189612b5f565b8181036020830152613a378188612c05565b9050613a466040830187612b5f565b613a536060830186612b5f565b613a60608083018561332b565b613a6d60a0830184613301565b979650505050505050565b7f4e487b7100000000000000000000000000000000000000000000000000000000600052602260045260246000fd5b60006002820490506001821680613abf57607f821691505b602082108103613ad257613ad1613a78565b5b50919050565b7f536164656365206865736170207361686962692064656769737469726562696c60008201527f6972210000000000000000000000000000000000000000000000000000000000602082015250565b6000613b34602383612bc1565b9150613b3f82613ad8565b604082019050919050565b60006020820190508181036000830152613b6381613b27565b9050919050565b7f4b6568616e6574206269746d6564692100000000000000000000000000000000600082015250565b6000613ba0601083612bc1565b9150613bab82613b6a565b602082019050919050565b60006020820190508181036000830152613bcf81613b93565b9050919050565b6000613be182612a81565b9150613bec83612a81565b9250817fffffffffffffffffffffffffffffffffffffffffffffffffffffffffffffffff0483118215151615613c2557613c24613914565b5b828202905092915050565b7f4e487b7100000000000000000000000000000000000000000000000000000000600052601260045260246000fd5b6000613c6a82612a81565b9150613c7583612a81565b925082613c8557613c84613c30565b5b828204905092915050565b7f496e76616c696420706f73742049440000000000000000000000000000000000600082015250565b6000613cc6600f83612bc1565b9150613cd182613c90565b602082019050919050565b60006020820190508181036000830152613cf581613cb9565b9050919050565b7f416d6f756e74206d7573742062652067726561746572207468616e2030000000600082015250565b6000613d32601d83612bc1565b9150613d3d82613cfc565b602082019050919050565b60006020820190508181036000830152613d6181613d25565b9050919050565b7f4b656e6469206b6568616e6574696e65206b6174696c696d20796170616d617a60008201527f73696e2100000000000000000000000000000000000000000000000000000000602082015250565b6000613dc4602483612bc1565b9150613dcf82613d68565b604082019050919050565b60006020820190508181036000830152613df381613db7565b9050919050565b6000608082019050613e0f6000830187612b5f565b613e1c602083018661332b565b613e296040830185612b5f565b613e366060830184613301565b95945050505050565b7f506f737420646f6573206e6f7420657869737421000000000000000000000000600082015250565b6000613e75601483612bc1565b9150613e8082613e3f565b602082019050919050565b60006020820190508181036000830152613ea481613e68565b9050919050565b7f4b756c6c616e6963692062756c756e616d616469210000000000000000000000600082015250565b6000613ee1601583612bc1565b9150613eec82613eab565b602082019050919050565b60006020820190508181036000830152613f1081613ed4565b9050919050565b7f46756c6c206e616d652069732072657175697265640000000000000000000000600082015250565b6000613f4d601583612bc1565b9150613f5882613f17565b602082019050919050565b60006020820190508181036000830152613f7c81613f40565b9050919050565b7f4275206b756c6c616e696369207a6174656e2076617221000000000000000000600082015250565b6000613fb9601783612bc1565b9150613fc482613f83565b602082019050919050565b60006020820190508181036000830152613fe881613fac565b9050919050565b60006060820190506140046000830186612b5f565b81810360208301526140168185612c05565b9050614025604083018461332b565b949350505050565b7f506f73742062756c756e616d6164692100000000000000000000000000000000600082015250565b6000614063601083612bc1565b915061406e8261402d565b602082019050919050565b6000602082019050818103600083015261409281614056565b9050919050565b600081905092915050565b60008190508160005260206000209050919050565b600081546140c681613aa7565b6140d08186614099565b945060018216600081146140eb57600181146140fc5761412f565b60ff1983168652818601935061412f565b614105856140a4565b60005b8381101561412757815481890152600182019150602081019050614108565b838801955050505b50505092915050565b600061414482846140b9565b91508190509291505056fea2646970667358221220c46f9823f6e267b9ff0c86e5683511a926ddd531e1d3f9239cfaea954469274164736f6c634300080d0033",
  "immutableReferences": {},
  "source": "// SPDX-License-Identifier: MIT\n// Tells the Solidity compiler to compile only from v0.8.13 to v0.9.0\npragma solidity ^0.8.13;\n\n//import \"@openzeppelin/contracts/security/ReentrancyGuard.sol\";\n\ncontract PredictorsApp {\n    \n    /* ////////////////////////////////// */\n    /* ////////// DEKENLER /////////// */\n    /* ////////////////////////////////// */\n    address private owner; // Contract sahibinin adresini tutmak iin bir deiken oluturuyoruz.\n    uint256 public userCount; // Kullanc saysn tutmak iin bir deiken oluturuyoruz. Backend'e saklayacaz\n    uint256 public postCount; // Post saysn tutmak iin bir deiken oluturuyoruz. Backend'e saklayacaz\n    address public admin; // Admin adresini tutmak iin bir deiken oluturuyoruz.\n    WinnerLoserState public state; // WinnerLoserState struct'n manipule etmek iin bu deikeni kullanacaz.\n\n    /* ////////////////////////////////// */\n    /* //////////// ENUMLAR ///////////// */\n    /* ////////////////////////////////// */\n\n    enum SIDE {LEFT,RIGHT} // LEFT/RIGHT enum tipini oluturuyoruz.\n\n    /* ////////////////////////////////// */\n    /* ///////// STRUCT YAPILARI //////// */\n    /* ////////////////////////////////// */\n\n    //Kullanc bilgilerini tutmak iin User struct' oluturuyoruz.\n    struct User {\n        uint256 id; // Kullancnn ID'sini tutuyoruz.\n        string fullName; // Kullancnn adn ve soyadn tutuyoruz.\n        uint balance; //Kullancnn bakiyesi\n        address walletAddress; //Kullancnn czdan adresini tutuyoruz.\n        uint256 registerDate; //Kullancnn kayt olduu tarihi tutuyoruz.\n        bool isVerified; //Kullancnn dorulanp dorulanmadn tutuyoruz.\n        uint256[] allPredictions; //Kullanicinin Tum Postlarinn ID'leri - Int Array\n        uint256 predictionSuccesful; //Kullanici Basarili Sonuclanan Post Sayisi\n        uint256[] partipicatedPost; //Kullanicinin Katildigi (DER) Postlar - Int Array (Kendi postuna katlamaz)\n    }\n\n    //Post bilgilerini tutmak iin Post struct' oluturuyoruz.\n    struct Post {\n        uint256 id; // Postun ID'sini tutuyoruz.\n        string postContent; // Postun ieriini tutuyoruz.\n        uint256 postBet; // Kahinin postu olutururken yatrd bet miktarn tutuyoruz.\n        uint256 postEndDate; // Postun biti tarihini tutuyoruz.\n        uint256 postDate; // Postun oluturulma tarihini tutuyoruz.\n        address[] postParticipants; //Post katilimcileri - Address Array\n        uint256 postBetPool; //Posta katlmclarn yatrd toplam bet miktarn tutuyoruz.\n        bool postFinished; // Postun bitip bitmediini tutuyoruz.\n    }\n\n    // Kehanetin sonucunu yani hangi tarafn kazandn burada tutacaz\n    struct WinnerLoserState {\n        SIDE winner; // SIDE tipinde kazananlar tutuyoruz. (Left'in ve Right'n kazananlar)\n        SIDE loser; // SIDE tipinde kaybedenleri tutuyoruz. (Left'in ve Right'n kaybedenleri)\n    }\n\n    /* ////////////////////////////////// */\n    /* //////// MAPPING YAPILARI //////// */\n    /* ////////////////////////////////// */\n\n    mapping(address => User) public users; // Kullanclar tutmak/dndrmek iin bir mapping oluturuyoruz.\n    mapping(uint256 => Post) public posts; // Postlar tutmak/dndrmek iin bir mapping oluturuyoruz.\n    mapping(SIDE => uint256) public topBetsForSide; //Taraflar iin toplam yatrlan bahisler\n    mapping(address => mapping(SIDE => uint256)) public betAmountByUser; //Kullancnn tarafa yatrd bahis\n    mapping(address => mapping(uint256 => SIDE)) public sideByUser; // Kullancya gre taraflar tutuyoruz.\n\n    /* ////////////////////////////////// */\n    /* ///////// EVENT YAPILARI ///////// */\n    /* ////////////////////////////////// */\n\n    // Fonksiyonlarn durum bilgileri event ile bakalarna yayn yapyoruz\n    event NewUser(uint256 id, string fullName, address walletAddress);\n    event NewPost(uint256 id,string postContent,uint256 postBet,uint256 postEndDate,address postAuthor,SIDE _side);\n    event PostParticipation(uint256 postId,address participant,uint256 amount,SIDE _side);\n    event PostFinish(uint256 postId,address winner,uint256 totalBet,uint256 authorReward);\n    event BalanceWithdrawn(address walletAddress,uint256 amount);\n    /* ////////////////////////////////// */\n    /* /////////// CONSTRUCTOR ////////// */\n    /* ////////////////////////////////// */\n\n    // Balangta ilklenmesi iin constructor fonksiyonu oluturuyoruz, kullanc ve post saylarn sfra ayarlyoruz.\n    constructor() {\n        owner = msg.sender;\n        userCount = 0;\n        postCount = 0;\n    }\n\n    /* ////////////////////////////////// */\n    /* /////////// MODIFIERLAR ////////// */\n    /* ////////////////////////////////// */\n\n    // Sadece adminin kullanabilecei fonksiyonlar belirlemek iin bir modifier oluturuyoruz.\n    modifier onlyOwner() {\n        require(msg.sender == owner, \"Sadece hesap sahibi degistirebilir!\");\n        _;\n    }\n    \n    /* ////////////////////////////////// */\n    /* /////// EXECUTE FONKSIYONLAR ///// */\n    /* ////////////////////////////////// */\n    // UI'da kullanc deiirse yeni sahiplii setOwner ile vereceiz\n    function setOwner(address _newOwner) external onlyOwner {  \n        owner = _newOwner;\n    }\n\n    // Kullanc oluturma fonksiyonu\n    function registerUser(string memory _fullName) public {\n        require(bytes(_fullName).length > 0, \"Full name is required\");\n        require(!isUser(msg.sender) , \"Bu kullanici zaten var!\"); //Kullanc yoksa devam et\n        userCount++;\n\n        users[msg.sender] = User({\n            id: userCount,\n            fullName: _fullName,\n            balance: 0,\n            walletAddress: msg.sender,\n            registerDate: block.timestamp,\n            isVerified: false, //dogrulanmis mi\n            allPredictions: new uint256[](0), //oluturduu postlarn/tahminlerin indexi\n            predictionSuccesful: 0, //basarili tahminler\n            partipicatedPost: new uint256[](0) //diger katildigi tahminlerin/postlarn indexi\n        });\n        \n\n        emit NewUser(userCount, _fullName, msg.sender);\n    }\n    // Post oluturma fonksiyonu\n    function createPost(string memory _postContent,uint256 _postBet,uint256 _postEndDate, SIDE _side) public {\n        require(bytes(_postContent).length > 0, \"Post content is required\");\n        require(_postBet > 0, \"Bet amount must be greater than 0\");\n        //require(_postEndDate > block.timestamp, \"End date must be in the future\");\n        postCount++;\n\n        //Post yaratldnda ilk katlmc olarak post sahibini ekliyoruz ekliyoruz.\n        address[] memory initialParticipants = new address[](1);\n        initialParticipants[0] = msg.sender;\n\n        //Seilen taraf post ID sine gre kullancnn setii tarafa mapliyoruz.\n        sideByUser[msg.sender][postCount] = _side;\n\n        posts[postCount] = Post({\n            id: postCount, //Postun ID si\n            postContent: _postContent, //Post icerigi\n            postBet: _postBet, //Postun degeri\n            postEndDate: _postEndDate,\n            postDate: block.timestamp,\n            postParticipants: initialParticipants, // lk katlmc olarak sadece gndereni ekle\n            postBetPool: _postBet, //Postun toplam havuzu. Ilk yaratildiginda kahin betini post havuzuna ekledik\n            postFinished: false // Post bitti mi\n            //taraf: sideByUser[msg.sender][postCount] //Kahinin post'ta seecei taraf structa atadk\n        });\n\n        //Kahinin evet veya hayr seeneine dedii miktar ve hangi tarafn setiini tutan mappingi gncelleiyoruz.\n        betAmountByUser[msg.sender][_side] += _postBet; //Kahin'in odedigi miktari guncelledik\n        topBetsForSide[_side] += _postBet;\n        \n        //Kullanicinin toplam tahmin sayisini guncelliyoruz\n        users[msg.sender].allPredictions.push(postCount);\n\n        emit NewPost(postCount, _postContent, _postBet, _postEndDate, msg.sender, _side);\n    }\n\n    // Dier kullanclarn bir posta katlm fonksiyonu\n    function participateInPost( uint256 _postId, uint256 _amount, SIDE _side ) public {\n        require(_postId <= postCount && _postId > 0, \"Invalid post ID\");\n        //require(posts[_postId].postEndDate > block.timestamp, \"Post has ended.\");\n        require(_amount > 0, \"Amount must be greater than 0\");\n        //Post sahibi kendi postuna bahis yapamaz\n        require(posts[_postId].postParticipants[0] != msg.sender,\n            \"Kendi kehanetine katilim yapamazsin!\");\n\n        //Evet veya Hayr seeneinin toplam toplam havuzuna amount u ekliyoruz.\n        topBetsForSide[_side] += _amount;\n\n        //Kahin'in evet veya hayr seeneine dedii miktar gncelleiyoruz.\n        //rn: Kahin(msg.sender) \"Evet/Hayr\" seeneine _amount miktar deme ekledi.\n        betAmountByUser[msg.sender][_side] += _amount; //Kahin'in odedigi miktari guncelledik\n\n        posts[_postId].postBetPool += _amount; //Postun havuzunu gncelliyoruz.\n\n        sideByUser[msg.sender][_postId] = _side; //Kullancnn postID'ye gre tarafn gncelledik\n        //posts[_postId].taraf = _side;//Post'un taraf havuzunu arttrdk\n\n        posts[_postId].postParticipants.push(msg.sender); // Katlan kullancnn czdan adresini katilimcilar dizisine ekledik\n\n        //Kullancnn dier katld postlar gncelliyoruz.\n        users[msg.sender].partipicatedPost.push(_postId);\n\n        emit PostParticipation(_postId, msg.sender, _amount, _side);\n    }\n\n    // Etkinligin kazanani belirleyen fonksiyon.\n    // winner ile 0(LEFT) veya 1(RIGHT) alacaz. loser ile 0(LEFT) veya 1(RIGHT) alacaz\n    function postResults( uint256 _postId, SIDE _winner, SIDE _loser) external payable {\n        //require(predictor == msg.sender, \"Kahin degilsiniz!\"); //Kahin olup olmadn kontrol ediyoruz.\n        require(posts[_postId].postFinished == false, \"Kehanet bitmedi!\"); //Kehanetin bitmediyse devam et, bittiyse rapor oluturma.\n        \n\n        //Hangi tarafn kazandn struct'a bildiriyoruz\n        state.winner = _winner; //Param ile gelen winner'i struct'taki winner'a atiyoruz.\n        state.loser = _loser; //Param ile gelen loser'i struct'taki loser'a atiyoruz.\n        posts[_postId].postFinished = true; //Kehanetin bittigini belirtiyoruz.\n\n    \n        //Kazananlar listelemek iin for kullanacaz. Her dngde kullancnn state(winner) durumunu kontrol edeceiz.\n        // Side durumunu ve katlmclar almak iin geici diziler oluturuyoruz\n        SIDE[] memory participantsSides = new SIDE[](posts[_postId].postParticipants.length); \n        address[] memory participantsAddresses = posts[_postId].postParticipants; \n        \n        uint totalBetPool = posts[_postId].postBetPool;\n        \n\n        for (uint256 i = 0; i < participantsAddresses.length; i++) {\n            address participant = participantsAddresses[i];\n            participantsSides[i] = sideByUser[participant][_postId];\n\n            if(participantsSides[i] == state.winner){  // Katlmcnn adresi  = LEFT\n                \n                users[participant].predictionSuccesful ++; //Kazananlarin basarili tahmin degerini guncelledik\n\n                // Odul miktarini hesapla (kazananlarin toplam bahis havuzunun yuzdesi)\n                uint participantBet = betAmountByUser[participant][participantsSides[i]]; //Yatrd sermaye\n                \n                //(Yatrd bahis * Havuzdaki top miktar) /toplam kazanan says\n                uint rewardAmount = (participantBet * totalBetPool) / topBetsForSide[state.winner];\n                users[participant].balance += rewardAmount;\n                //payable(users[participant]).transfer(users[participant].balance);\n                \n                //uint256 sermaye = betAmountByUser[msg.sender][state.winner];\n                \n                // KAZANC + (no diyenlerin sayisi * sermaye) / KAZANAN KISI SAYISI\n                // uint256 kazanc = sermaye + (topBetsForSide[state.loser] * sermaye) / topBetsForSide[state.winner];\n   \n            }   \n        }\n    }\n\n    /* //withdrawBalance\n    function withdrawBalance(uint amount) external nonReentrant {\n        require(isUser(msg.sender), \"Kullanici bulunamadi!\");\n        \n        uint balance = users[msg.sender].balance;\n        require(balance >= amount, \"Yetersiz bakiye!\");\n\n        users[msg.sender].balance -= amount;\n\n        (bool success, ) = msg.sender.call{value: amount}(\"\");\n        require(success, \"Transfer failed.\");\n\n        emit BalanceWithdrawn(msg.sender, amount);\n    } */\n\n    /* //////////////////////////////////// */\n    /* //////// QUERY FONKSIYONLAR //////// */\n    /* //////////////////////////////////// */\n\n    //Kullanc var olup olmadn kontrol ediyoruz. True yada False dnmesini bekliyoruz.\n    function isUser(address _walletAddress) private view returns (bool) {\n        return users[_walletAddress].walletAddress == _walletAddress; // Adress verdiimiz kullancnn adresi 0'a eit deilse true dndryoruz.\n    }\n   \n    // Kullancnn ad ve soyadn eken fonksiyon\n    function getUserFullName(address userAddress) public view returns (string memory) {\n        return string(abi.encodePacked(users[userAddress].fullName)); \n    }\n\n    //Kullanc bilgilerini ekme fonksiyonu\n    function getUserDetails(address _walletAddress) public  view returns ( uint256, string memory, uint, address, uint256, bool, uint256[] memory, uint256, uint256[] memory ){\n        require(isUser(_walletAddress), \"Kullanici bulunamadi!\"); //Kullanc yoksa devam et\n\n        User memory user = users[_walletAddress]; \n\n        return (\n            user.id,\n            user.fullName,\n            user.balance,\n            user.walletAddress,\n            user.registerDate,\n            user.isVerified,\n            user.allPredictions,\n            user.predictionSuccesful,\n            user.partipicatedPost\n        );\n    }\n\n    //Post bilgilerini ekme fonksiyonu\n    function getPostDetails(uint256 _id) public view returns ( uint256, string memory, uint256, uint256, uint256, address[] memory, uint, bool ) {\n        require(posts[_id].id != 0, \"Post bulunamadi!\"); // Post varsa devam et\n\n        Post memory post = posts[_id];\n\n        return (\n            post.id,\n            post.postContent,\n            post.postBet,\n            post.postEndDate,\n            post.postDate,\n            post.postParticipants,\n            post.postBetPool,\n            post.postFinished\n        );\n\n       \n    }\n\n    // Postlar aktif/pasif durumuna gre listeleme fonksiyonu (Parametre 0/1 alr)\n    function getPostByStatus(bool _status) external view returns (Post[] memory) {\n        uint256 count = 0;\n\n        //Verilen status deerine gre postlarn saysn buluyoruz.\n        for (uint256 i = 1; i < userCount; i++) {\n            if (posts[i].postFinished == _status) {\n                count++;\n            }\n        }\n\n        //Yukarda filtrelenmi postlarn says kadar dizi oluturuyoruz.\n        Post[] memory postsWithStatus = new Post[](count);\n        count = 0; //count'u sfrlyoruz.\n\n        //Verilen status deerine gre postlar postsWithStatus dizisine aktarma ilemi yapyoruz\n        for (uint256 i = 1; i <= userCount; i++) {\n            if (posts[i].postFinished == _status) {\n                postsWithStatus[count] = posts[i];\n                count++;\n            }\n        }\n        return postsWithStatus;\n    }\n\n    function getOwner() external view returns(address) {\n         return owner;\n    }\n\n    function getUser(address walletAddress) external view returns (User memory) {\n        require(isUser(walletAddress), \"Kullanici bulunamadi!\");\n        return users[walletAddress];\n    }\n\n    function getPost(uint _id) external view returns(Post memory) {\n        require(posts[_id].id != 0, \"Post does not exist!\");\n        return posts[_id];\n    }\n\n    function getUserCount() external view returns (uint) {\n        return userCount;\n    }\n\n    function getPostCount() external view returns (uint) {\n        return postCount;\n    }\n\n}\n",
  "sourcePath": "/Users/dmrdvn/Projects/PredictorsDAPP/contracts/PredictorsApp.sol",
  "compiler": {
    "name": "solc",
    "version": "0.8.13+commit.abaa5c0e.Emscripten.clang"
  },
  "schemaVersion": "3.4.16",
  "updatedAt": "2023-10-31T19:50:31.282Z",
  "networkType": "ethereum",
  "devdoc": {
    "kind": "dev",
    "methods": {},
    "version": 1
  },
  "userdoc": {
    "kind": "user",
    "methods": {},
    "version": 1
  },
  "db": {
    "callBytecode": {
      "id": "0xb609dd1011feb97cb3051098be533e5a3783c3e11f26fe4e4e8083dfe51c198e"
    },
    "createBytecode": {
      "id": "0xd58d6268525366d5706865acf80d07496e334925e4421850d0e1a9ada3965441"
    },
    "contract": {
      "id": "0x697fe56695a74962e6c5b0dc82892bf5e210fc8e8085e6aaf79eeb8a66e75f25"
    }
  }
}